:100000000C945D000C9485000C9485000C94850084
:100010000C9485000C9485000C9485000C9485004C
:100020000C9485000C9485000C9485000C94280594
:100030000C9485000C9485000C9485000C9485002C
:100040000C94DE040C9485000C94AC040C9486048F
:100050000C9485000C9485000C9485000C9485000C
:100060000C9485000C94850000000008000201003B
:100070000003040700000000000000000000000072
:10008000250028002B0000000000240027002A0083
:10009000040404040404040402020202020203032E
:1000A0000303030301020408102040800102040836
:1000B0001020010204081020E40511241FBECFEF18
:1000C000D8E0DEBFCDBF11E0A0E0B1E0EEEFF5E19A
:1000D00002C005900D92A43CB107D9F722E0A4EC30
:1000E000B1E001C01D92A73CB207E1F710E0CDE5F9
:1000F000D0E004C02197FE010E94F70ACC35D10759
:10010000C9F70E946C060C94FD0A0C94000090E064
:10011000FC01EC55FF4F249180579F4FFC018491C7
:10012000882399F090E0880F991FFC01EA57FF4F50
:10013000A591B491FC01E458FF4F859194918FB73C
:10014000F894EC91E22BEC938FBF0895AF92BF929D
:10015000CF92DF92EF92FF920F931F93CF93DF9393
:100160006C017B018B01040F151FEB015E01AE18C2
:10017000BF08C017D10759F06991D601ED91FC91E4
:100180000190F081E02DC6010995892B79F7C50111
:10019000DF91CF911F910F91FF90EF90DF90CF9063
:1001A000BF90AF900895FC01538D448D252F30E012
:1001B000842F90E0821B930B541710F0CF96089574
:1001C00001970895FC01918D828D981761F0A28DA1
:1001D000AE0FBF2FB11D5D968C91928D9F5F9F7367
:1001E000928F90E008958FEF9FEF0895FC01918D1D
:1001F000828D981731F0828DE80FF11D858D90E08A
:1002000008958FEF9FEF0895FC01918D228D892F26
:1002100090E0805C9F4F821B91098F73992708950E
:100220008AEE91E00E94040121E0892B09F420E08C
:10023000822F089580E090E0892B29F00E94100120
:1002400081110C9400000895FC01A48DA80FB92F12
:10025000B11DA35ABF4F2C91848D90E001968F73EE
:100260009927848FA689B7892C93A089B1898C910D
:10027000837080648C93938D848D981306C002885C
:10028000F389E02D80818F7D80830895EF92FF9226
:100290000F931F93CF93DF93EC0181E0888F9B8DA9
:1002A0008C8D98131AC0E889F989808185FF15C063
:1002B0009FB7F894EE89FF896083E889F989808186
:1002C0008370806480839FBF81E090E0DF91CF9155
:1002D0001F910F91FF90EF900895F62E0B8D10E077
:1002E0000F5F1F4F0F731127E02E8C8D8E110CC0E6
:1002F0000FB607FCFACFE889F989808185FFF5CF31
:10030000CE010E942401F1CFEB8DEC0FFD2FF11DEA
:10031000E35AFF4FF0829FB7F8940B8FEA89FB896D
:1003200080818062CFCFCF93DF93EC01888D8823CB
:10033000B9F0AA89BB89E889F9898C9185FD03C048
:10034000808186FD0DC00FB607FCF7CF8C9185FF2D
:10035000F2CF808185FFEDCFCE010E942401E9CF4D
:10036000DF91CF91089590E0FC01E859FF4F24916F
:10037000FC01EC55FF4F3491FC01E057FF4FE49135
:10038000EE23C9F0222339F0233001F1A8F4213003
:1003900019F1223029F1F0E0EE0FFF1FE458FF4F72
:1003A000A591B4918FB7F894EC91611126C0309566
:1003B0003E233C938FBF08952730A9F02830C9F021
:1003C000243049F7809180008F7D03C080918000A8
:1003D0008F7780938000DFCF84B58F7784BDDBCFAC
:1003E00084B58F7DFBCF8091B0008F778093B00074
:1003F000D2CF8091B0008F7DF9CF3E2BDACF8E30F7
:1004000008F08E508770806480937C0080917A0021
:10041000806480937A0080917A0086FDFCCF809181
:1004200078009091790008953FB7F8948091CA01BF
:100430009091CB01A091CC01B091CD0126B5A89BA4
:1004400005C02F3F19F00196A11DB11D3FBFBA2F66
:10045000A92F982F8827BC01CD01620F711D811D26
:10046000911D42E0660F771F881F991F4A95D1F7AB
:1004700008958F929F92AF92BF92CF92DF92EF92A8
:10048000FF924B015C010E9414026B017C010E94EF
:1004900014026C197D098E099F09683E734081051D
:1004A0009105A8F321E0821A9108A108B10888EE0D
:1004B000C80E83E0D81EE11CF11C81149104A10434
:1004C000B10429F7FF90EF90DF90CF90BF90AF90ED
:1004D0009F908F900895089590E080E00895CF93C5
:1004E000DF93EC0160E08E810E94B30161E08E81B8
:1004F0000E94B30160E08E810E94B3018BE891E01D
:100500000197F1F7DF91CF910895CF92DF92EF92AB
:10051000FF920F931F93CF93DF936C017C0187E0D1
:10052000E80EF11CD0E0C0E0062F10E0B8010C2E60
:1005300002C0759567950A94E2F76170F7018191A1
:100540007F010E94B3012196C430D10579F7C6011D
:10055000DF91CF911F910F91FF90EF90DF90CF909F
:100560000C946F02CF92DF92EF92FF920F931F9342
:10057000CF93DF93EC01F62E642F8C810E94B301A0
:100580008D818F3F19F060E00E94B3010F2D10E0C4
:100590008F8584FF25C06E0187E0C80ED11CF12C29
:1005A000E12CB8010E2C02C0759567950A94E2F70C
:1005B0006170F60181916F010E94B301FFEFEF1AA4
:1005C000FF0A88E0E816F10461F7CE01DF91CF91D0
:1005D0001F910F91FF90EF90DF90CF900C946F02DE
:1005E000B80184E0759567958A95E1F7CE010E9480
:1005F00085026F2DCE01DF91CF911F910F91FF905A
:10060000EF90DF90CF900C94850240E0682F8CEA49
:1006100092E00C94B20281E00E9405038BE39FE11B
:100620000197F1F70895CF93DF93823029F49091E9
:10063000BB0298609093BB028093BF021092C002ED
:1006400080E48093C10280E18093C20280E58093C0
:10065000C3028091B0020E9487008091B1028F3F57
:1006600011F00E9487008091B2020E948700CCEABC
:10067000D2E09E012C5A32408091BB0284FD0AC018
:1006800084E090E02196281739073CF48E810E947F
:100690008700EFCF88E090E0F5CF8BE39DE00197F6
:1006A000F1F760E08091B0020E94B30160E08091B8
:1006B000B2020E94B3018091B1028F3F19F060E055
:1006C0000E94B3018091BB0284FD34C063E08CEAD8
:1006D00092E00E948502CBE4D6E4CE010197F1F7C7
:1006E00063E08CEA92E00E9485022197F1F763E0D3
:1006F0008CEA92E00E94850283E592E00197F1F78F
:1007000062E08CEA92E00E9485028091BB028062E6
:100710000E94050384E08093BC028CE00E940503E4
:100720000E940B0382E08093BD0286E0DF91CF91AF
:100730000C94050380620E9405038BE496E4019704
:10074000F1F78091BB0280620E94050383E592E08D
:100750000197F1F78091BB0280620E940503D5CF1B
:10076000E091BF02E23040F4E150F0E0E455FD4F8B
:10077000848980680C940503E1E0F7CF41E00E9492
:10078000B20281E090E00895FB0101900020E9F7BA
:100790003197AF01461B570BDC01ED91FC910280B4
:1007A000F381E02D09944F925F926F927F928F9226
:1007B0009F92AF92BF92CF92DF92EF92FF920F93F0
:1007C0001F93CF93DF93CDB7DEB7A1970FB6F89401
:1007D000DEBF0FBECDBF8C016B01770FEE08FF08A7
:1007E000F7FE49C0DC01ED91FC910190F081E02D14
:1007F0006DE209955C0122273327A9012C193D09D7
:100800004E095F0919A2FE01B1967F019AE0492EB7
:10081000512C612C712CCA01B901A30192010E94D3
:10082000C90A605DD7016E937D012115310541052F
:10083000510589F790E080E0109721F0BD01C801D3
:100840000E94C4038A0D9B1DA1960FB6F894DEBFCB
:100850000FBECDBFDF91CF911F910F91FF90EF9011
:10086000DF90CF90BF90AF909F908F907F906F90D0
:100870005F904F900895A701960119A2FE01B196CD
:100880007F018AE0882E912CA12CB12CCA01B901DC
:10089000A50194010E94C90A605DD7016E937D0194
:1008A000211531054105510589F790E080E0109749
:1008B00059F2BD01C8010E94C403C6CFCF93DF9394
:1008C000BC018AEE91E00E94D303EC016EE271E07C
:1008D0008AEE91E00E94C4038C0F9D1FDF91CF919F
:1008E0000895CF93DF93BC018AEE91E00E94C40388
:1008F000EC016EE271E08AEE91E00E94C4038C0F7D
:100900009D1FDF91CF9108950C94C4031F920F9205
:100910000FB60F9211242F933F934F935F936F93D2
:100920007F938F939F93AF93BF93EF93FF938AEE41
:1009300091E00E942401FF91EF91BF91AF919F91AF
:100940008F917F916F915F914F913F912F910F9078
:100950000FBE0F901F9018951F920F920FB60F9217
:1009600011242F938F939F93EF93FF93E091FA01BC
:10097000F091FB018081E0910002F091010282FD83
:100980001BC09081809103028F5F8F7320910402BE
:10099000821741F0E0910302F0E0E651FE4F958F9F
:1009A00080930302FF91EF919F918F912F910F9070
:1009B0000FBE0F901F9018958081F4CF1F920F9259
:1009C0000FB60F9211242F933F938F939F93AF9362
:1009D000BF938091C6019091C701A091C801B091C9
:1009E000C9013091C50123E0230F2D3758F5019639
:1009F000A11DB11D2093C5018093C6019093C7012D
:100A0000A093C801B093C9018091CA019091CB0114
:100A1000A091CC01B091CD010196A11DB11D809393
:100A2000CA019093CB01A093CC01B093CD01BF91AB
:100A3000AF919F918F913F912F910F900FBE0F908B
:100A40001F90189526E8230F0296A11DB11DD2CF45
:100A50001F920F920FB60F9211242F933F934F9333
:100A60005F936F937F938F939F93AF93BF93CF9336
:100A7000DF93EF93FF938091C401C091AB02D0E06C
:100A800087FF24C010928500109284008091C401D9
:100A90008F5F8093C4018091C401082E000C990BD4
:100AA0008C179D0724F48091C4018C30C4F180918F
:100AB000840090918500049680349C4908F47AC0A3
:100AC0008091840090918500049676C08091C40145
:100AD000082E000C990B8C179D07C4F6E091C401F9
:100AE0008E2FEE0F990BFC01EE0FFF1FE80FF91F81
:100AF000E957FD4F808186FFC9CFE091C4018E2F59
:100B0000EE0F990BFC01EE0FFF1FE80FF91FE957DD
:100B1000FD4F808160E08F730E94B301B7CF2091B9
:100B2000840030918500E091C4018E2FEE0F990B67
:100B3000FC01EE0FFF1FE80FF91FE957FD4F818100
:100B40009281820F931F9093890080938800E09197
:100B5000C4018E2FEE0F990BFC01EE0FFF1FE80F63
:100B6000F91FE957FD4F808186FF11C0E091C40154
:100B70008E2FEE0F990BFC01EE0FFF1FE80FF91FF0
:100B8000E957FD4F808161E08F730E94B301FF91AF
:100B9000EF91DF91CF91BF91AF919F918F917F9115
:100BA0006F915F914F913F912F910F900FBE0F90DA
:100BB0001F90189580E49CE99093890080938800A9
:100BC0008FEF8093C401E3CF1092ED011092EC01FE
:100BD00088EE93E0A0E0B0E08093EE019093EF0107
:100BE000A093F001B093F10184E191E09093EB01C7
:100BF0008093EA0185EC90E09093F7018093F601F1
:100C000084EC90E09093F9018093F80180EC90E0FF
:100C10009093FB018093FA0181EC90E09093FD01A9
:100C20008093FC0182EC90E09093FF018093FE01A1
:100C300086EC90E0909301028093000210920302F0
:100C40001092040210920502109206028091AB02EB
:100C50008C30F0F591E0980F9093AB028093C40232
:100C600090E0FC01EE0FFF1FE80FF91FE957FD4F61
:100C700088EB9BE0928381831092AF021092AE02C8
:100C800086E291E09093AD028093AC0288E080937D
:100C9000B0028FEF8093B10289E08093B20284E0CA
:100CA0008093B30285E08093B40286E08093B5021E
:100CB00087E08093B6021092B7021092B8021092A9
:100CC000B9021092BA021092BB0281E00C94130395
:100CD0008FEF8093C402D0CF789484B5826084BDB6
:100CE00084B5816084BD85B5826085BD85B5816030
:100CF00085BD80916E00816080936E0010928100AE
:100D00008091810082608093810080918100816068
:100D10008093810080918000816080938000809129
:100D2000B10084608093B1008091B00081608093B5
:100D3000B00080917A00846080937A0080917A007C
:100D4000826080937A0080917A00816080937A003B
:100D500080917A00806880937A001092C100E091BF
:100D6000FA01F091FB0182E08083E091F601F091BD
:100D7000F7011082E091F801F091F9018FEC808386
:100D800010920202E091FE01F091FF0186E0808363
:100D9000E091FC01F091FD01808180618083E09110
:100DA000FC01F091FD01808188608083E091FC016D
:100DB000F091FD01808180688083E091FC01F091D9
:100DC000FD0180818F7D80838091C4028C3008F08A
:100DD00052C08AE00E9487008091C402282F30E030
:100DE000F901EE0FFF1FE20FF31FE957FD4F90814E
:100DF000907C9A6090839DEC9093C50293E29093CF
:100E0000C6022CE0622F0E94EB0A829FB0011124DF
:100E100030E020E0AB01420F531FFA01EE0FFF1F3D
:100E2000E40FF51FE957FD4F908196FD16C02F5F27
:100E30003F4F2C30310571F781110FC010928000A7
:100E400082E0809381001092850010928400B19A14
:100E500080916F00826080936F00E091C4028E2FBA
:100E600090E0FC01EE0FFF1FE80FF91FE957FD4F5F
:100E700080818064808382E00E94130361E371E0DB
:100E80008CEA92E00E94840461E371E08AEE91E0D2
:100E90000E9484040E94B00380E391E00E947104E8
:100EA00089E391E00E94710464EF71E080E090E0DA
:100EB0000E9439020E940B0363E471E08CEA92E025
:100EC0000E94840483E491E00E9471040E94B003B4
:100ED00094EB892E912CA12CB12CD8E0CD2ED12CC5
:100EE00007E010E086E0E82EF12C8FE00E94FF0181
:100EF0000B970CF422C38FE00E94FF01EC0190934A
:100F0000E9018093E8018FE00E94FF010B973CF01C
:100F100061E070E080E090E00E943902F4CFCB32D3
:100F200082E0D8070CF050C0C43292E0D90724F018
:100F30001092E6011092E501CE3882E0D8070CF05D
:100F400052C0C73892E0D9070CF4CBC082E090E0E1
:100F50009093E6018093E501C03283E0D8070CF05E
:100F6000D1C0CA36E2E0DE070CF0D2C0C336F2E0F0
:100F7000DF070CF4D3C085E090E09093E601809306
:100F8000E501CD3DE2E0DE070CF0D7C0C23482E0DF
:100F9000D8070CF0D6C0CB3392E0D9070CF4D7C0F9
:100FA000D092E601C092E501C73B82E0D8070CF081
:100FB000DFC0CA5BD1402797D8F4EAE2F0E0F093B3
:100FC000E601E093E50114C0C536E3E0DE075CF41A
:100FD000CE35F3E0DF070CF4AFCF81E090E09093E3
:100FE000E6018093E501C73293E0D9070CF4B4CF52
:100FF0006091E5017091E6018091E4018111BFC02B
:1010000061157105F1F08091E0019091E1019C0181
:101010002F5F3F4F3093E1012093E001880F991F2C
:10102000FC01E852FE4F718360838CEA92E00E94DB
:10103000D3036091E5017091E6018AEE91E00E9490
:10104000D3038091E0019091E101049709F005C27A
:1010500068EC70E080E090E00E94390280E391E06B
:101060000E9471048091D7011092D6011092D5018F
:101070008111CCC0D0E0C0E08091D5019091D60123
:10108000843091050CF0E5C12196880F991FFC0171
:10109000E852FE4F885F9E4F20813181FC018081A4
:1010A00091812817390709F07FC08DE591E00E94F2
:1010B00071048091D3019091D40101969093D40151
:1010C0008093D3010E945E04CE010E945E04809151
:1010D000D5019091D60101969093D6018093D501C8
:1010E000CBCFC115E2E0DE070CF036CFC93FF1E00F
:1010F000DF070CF431CF83E090E09093E60180931A
:10110000E5012FCF84E090E09093E6018093E50124
:10111000C43EF2E0DF070CF06BCF33CFCA3E81E074
:10112000D8070CF02ECFC33E91E0D9070CF429CF9D
:10113000F092E601E092E50129CF1093E6010093D9
:10114000E501CE3BF2E0DF070CF052CF2DCFC03DE2
:10115000E1E0DE070CF028CFC93CF1E0DF070CF43A
:1011600023CFE9E0F0E0F093E601E093E50121CF41
:1011700089E290E09093E6018093E5011ACF611532
:10118000710509F45ECF8091E2019091E3019C0129
:101190002F5F3F4F3093E3012093E201880F991FA7
:1011A000FC01E050FF4F3FCF1092D4011092D301C9
:1011B0001092D9011092D80189E691E00E94710441
:1011C0000E940B03CE010E945E04C430D10509F0D9
:1011D0007ECF64E771E08CEA92E00E9484048DE7A0
:1011E00091E00E9471046CE271E080E090E00E9466
:1011F00039020E940B036CE471E08CEA92E00E94D9
:1012000084040E94B003D0E0C0E061CF2224239484
:101210008091D5019091D601843091050CF019C1CF
:10122000880F991FFC01E852FE4F20813181FC019B
:10123000E050FF4F40815181885F9E4FFC018081CB
:1012400091818217930721F02417350709F0C3C055
:101250002417350709F096C086E891E00E947104D2
:101260008091D1019091D20101969093D201809307
:10127000D101049709F073C00E940B036BE871E081
:101280008CEA92E00E9484042092CE018BE891E0E7
:101290000E9471048091CE01882309F452C03090DD
:1012A000C402FBE0F31508F444C08091C502C8E80D
:1012B000D0E0C81BD10987FDD395CC0FDD1FCC0F23
:1012C000DD1F2E010D2E000C660877088091C602E6
:1012D00068E572E0681B710987FD7395660F771FDB
:1012E000660F771F072E000C880B990B6419750980
:1012F00086099709A50194010E94AA0A420E531E6D
:10130000641E751E4C165D060CF42E0182E0481A10
:101310005108440C551C2FB7F894832D90E0FC0124
:10132000EE0FFF1FE80FF91FE957FD4F5282418270
:101330002FBF60EA7FE080E090E00E9439021092C7
:10134000CE010E940B036CE471E08CEA92E00E94F3
:1013500084040E94B0031092D2011092D1018091B6
:10136000D5019091D601880F991FFC01E852FE4FDC
:10137000885F9E4F20813181FC01808191812817F7
:101380003907F9F48DE591E00E9471048091D30151
:101390009091D40101969093D4018093D301209130
:1013A000CF013091D0012F5F3F4F3093D001209378
:1013B000CF010E945E048091CF019091D0010E94E4
:1013C0005E048091D5019091D60101969093D6014B
:1013D0008093D5011DCF1092D4011092D3011092A9
:1013E000D9011092D80189E691E00E9471040E940F
:1013F0000B038091CF019091D00101969093D00181
:101400008093CF010E945E048091CF019091D00122
:101410000497B9F61092D0011092CF0164E771E001
:101420008CEA92E00E9484048DE791E00E947104AE
:101430006CE271E080E090E00E9439020E940B03B0
:101440006CE471E08CEA92E00E9484040E94B00394
:10145000B8CF1092E1011092E0018091D3019091F8
:10146000D401049709F50E940B036AE971E08CEA44
:1014700092E00E94840468EE73E080E090E00E94B5
:1014800039020E940B0381E08093E7018093E4011D
:1014900083EA91E00E9471041092D4011092D3016A
:1014A0001092D0011092CF018091E701882309F4B6
:1014B00044C00E940B0367EB71E08CEA92E00E944B
:1014C00084040E94B0038091E2019091E3010497AB
:1014D000A1F58091E401882381F11092E701109237
:1014E000E4011092E3011092E2010E94B003C0E017
:1014F000D1E0899199910E945E04FE01329760814A
:1015000071818CEA92E00E94D30388E091E08C170D
:101510009D0779F760ED77E080E090E00E94390266
:101520000E940B036CE471E08CEA92E00E94840458
:101530000E94B00381E08093D70180E090E0892B86
:1015400009F4D3CC0E941001882309F4C6CC0E9470
:101550000000C3CC052E97FB1EF400940E94C10A24
:1015600057FD07D00E94C90A07FC03D04EF40C9423
:10157000C10A50954095309521953F4F4F4F5F4F91
:10158000089590958095709561957F4F8F4F9F4FEF
:101590000895A1E21A2EAA1BBB1BFD010DC0AA1FB4
:1015A000BB1FEE1FFF1FA217B307E407F50720F0CC
:1015B000A21BB30BE40BF50B661F771F881F991F47
:1015C0001A9469F760957095809590959B01AC0190
:1015D000BD01CF010895991B79E004C0991F9617AA
:1015E00008F0961B881F7A95C9F780950895EE0F2D
:0E15F000FF1F0590F491E02D0994F894FFCFB1
:1015FE0003000300030003000400080004000800B9
:10160E00000000004601A600D30093010401E20091
:10161E00F60000000000BE03A6006C026B020D0A6D
:10162E000041726475696E6F004365727261647514
:10163E00726100496E67726573617220436F6469EF
:10164E00676F20457370656369616C3A0044696722
:10165E0069746F204269656E0044696769746F2012
:10166E004D616C00546F646F206D616C00546F643B
:10167E006F204D616C006269656E00536572766F06
:10168E0020416374697661646F00436F72726563A3
:10169E00746F005375204E7565766120436F6E74BE
:1016AE0072612065733A005375206E756576612000
:0416BE0065733A0016
:00000001FF
