:100000000C9461000C947E000C947E000C947E0095
:100010000C947E000C947E000C947E000C947E0068
:100020000C947E000C947E000C947E000C947E0058
:100030000C947E000C947E000C947E000C947E0048
:100040000C9403010C947E000C947E000C947E00B2
:100050000C947E000C947E000C947E000C947E0028
:100060000C947E000C947E00000000002400270009
:100070002A000000000023002600290000000000E4
:10008000250028002B0004040404040404040202D4
:100090000202020203030303030301020408102007
:1000A0004080010204081020010204081020000012
:1000B0000008000201000003040700000000000027
:1000C000000011241FBECFEFD8E0DEBFCDBF11E08E
:1000D000A0E0B1E0E0EBF4E002C005900D92A630A4
:1000E000B107D9F721E0A6E0B1E001C01D92A1312E
:1000F000B207E1F70E944D010C9456020C940000E7
:10010000833081F028F4813099F08230A9F008958D
:100110008730A9F08830C9F08430B1F48091800034
:100120008F7D03C0809180008F7780938000089539
:1001300084B58F7784BD089584B58F7DFBCF809182
:10014000B0008F778093B00008958091B0008F7DCC
:10015000F9CFCF93DF93282F30E0F901E255FF4F1D
:100160008491F901E656FF4FD491F901EA57FF4F08
:10017000C491CC23A1F081110E948000EC2FF0E00B
:10018000EE0FFF1FEE58FF4FA591B491EC91ED23B8
:1001900081E090E009F480E0DF91CF91089580E064
:1001A00090E0FACFCF93DF9390E0FC01E656FF4F4B
:1001B00024918A579F4FFC0184918823D1F090E0CD
:1001C000880F991FFC01E859FF4FA591B491FC01DC
:1001D000E458FF4FC591D49161110EC09FB7F894B8
:1001E0008C91E22FE0958E238C932881E223E88383
:1001F0009FBFDF91CF9108958FB7F894EC91E22BD8
:10020000EC938FBFF6CF1F920F920FB60F9211246F
:100210002F933F938F939F93AF93BF9380910D0143
:1002200090910E01A0910F01B091100130910C013D
:1002300023E0230F2D3758F50196A11DB11D209302
:100240000C0180930D0190930E01A0930F01B093C8
:1002500010018091080190910901A0910A01B091CB
:100260000B010196A11DB11D809308019093090116
:10027000A0930A01B0930B01BF91AF919F918F9111
:100280003F912F910F900FBE0F901F90189526E869
:10029000230F0296A11DB11DD2CF789484B5826040
:1002A00084BD84B5816084BD85B5826085BD85B51A
:1002B000816085BD80916E00816080936E00109298
:1002C0008100809181008260809381008091810013
:1002D00081608093810080918000816080938000A4
:1002E0008091B10084608093B1008091B000816002
:1002F0008093B00080917A00846080937A0080912E
:100300007A00826080937A0080917A008160809385
:100310007A0080917A00806880937A001092C10000
:1003200061E0809100010E94D20061E080910201B1
:100330000E94D20061E0809104010E94D20060E03E
:1003400085E00E94D20060E086E00E94D20060E07A
:1003500087E00E94D20061E088E00E94D20061E064
:1003600089E00E94D20002E010E06AEAE62E60E036
:10037000F62E73E0C72ED12CEBEAAE2EE0E0BE2EB7
:10038000F4E08F2E912CA0E06A2EA0E07A2E10923D
:10039000070110920601C0910601D0910701C330F8
:1003A000D1050CF043C085E00E94A900019761F4DB
:1003B000FE01EE0FFF1FE050FF4F118300832196D7
:1003C000D0930701C093060181E0E816F10481F49F
:1003D0008091060190910701FC01EE0FFF1FE05094
:1003E000FF4FD182C082019690930701809306014E
:1003F00081E0A816B10481F4809106019091070173
:10040000FC01EE0FFF1FE050FF4F918280820196AA
:100410009093070180930601809106019091070156
:1004200001969093070180930601B5CF8091060154
:1004300090910701833091050CF031C0880F991F0E
:10044000FC01E050FF4F208131813327F901E25553
:10045000FF4F8491F901E656FF4FC491F901EA5725
:10046000FF4FD491DD2389F081110E948000ED2F90
:10047000F0E0EE0FFF1FE458FF4FA591B4918FB746
:10048000F894EC91CE2BCC938FBF80910601909184
:10049000070101969093070180930601C7CF61146D
:1004A000710409F474CF0E94000071CFF894FFCF5B
:0604B0000200030004003D
:107E0000112484B714BE81FFF0D085E080938100F7
:107E100082E08093C00088E18093C10086E0809377
:107E2000C20080E18093C4008EE0C9D0259A86E02C
:107E300020E33CEF91E0309385002093840096BBD3
:107E4000B09BFECF1D9AA8958150A9F7CC24DD24C4
:107E500088248394B5E0AB2EA1E19A2EF3E0BF2EE7
:107E6000A2D0813461F49FD0082FAFD0023811F036
:107E7000013811F484E001C083E08DD089C08234E0
:107E800011F484E103C0853419F485E0A6D080C0E4
:107E9000853579F488D0E82EFF2485D0082F10E0AE
:107EA000102F00270E291F29000F111F8ED06801E7
:107EB0006FC0863521F484E090D080E0DECF843638
:107EC00009F040C070D06FD0082F6DD080E0C81688
:107ED00080E7D80618F4F601B7BEE895C0E0D1E017
:107EE00062D089930C17E1F7F0E0CF16F0E7DF06D8
:107EF00018F0F601B7BEE89568D007B600FCFDCFD4
:107F0000A601A0E0B1E02C9130E011968C91119780
:107F100090E0982F8827822B932B1296FA010C0160
:107F200087BEE89511244E5F5F4FF1E0A038BF0790
:107F300051F7F601A7BEE89507B600FCFDCF97BE46
:107F4000E89526C08437B1F42ED02DD0F82E2BD052
:107F50003CD0F601EF2C8F010F5F1F4F84911BD097
:107F6000EA94F801C1F70894C11CD11CFA94CF0C13
:107F7000D11C0EC0853739F428D08EE10CD085E9AC
:107F80000AD08FE07ACF813511F488E018D01DD067
:107F900080E101D065CF982F8091C00085FFFCCF94
:107FA0009093C60008958091C00087FFFCCF809118
:107FB000C00084FD01C0A8958091C6000895E0E648
:107FC000F0E098E1908380830895EDDF803219F02E
:107FD00088E0F5DFFFCF84E1DECF1F93182FE3DFCA
:107FE0001150E9F7F2DF1F91089580E0E8DFEE27F6
:047FF000FF270994CA
:027FFE00040479
:0400000300007E007B
:00000001FF
