:100000000C9462000C948A000C948A000C948A0070
:100010000C948A000C948A000C948A000C948A0038
:100020000C948A000C948A000C948A000C948A0028
:100030000C948A000C948A000C948A000C948A0018
:100040000C940D030C948A000C94DB020C94B50202
:100050000C948A000C948A000C948A000C948A00F8
:100060000C948A000C948A000000000025002800EF
:100070002B0000000000240027002A0000000000E0
:1000800023002600290004040404040404040202DA
:100090000202020203030303030301020408102007
:1000A0004080010204081020010204081020000012
:1000B0000008000201000003040700000000000027
:1000C0000000FC0411241FBECFEFD8E0DEBFCDBF7F
:1000D00011E0A0E0B1E0E6EAFAE002C005900D927E
:1000E000AE38B107D9F722E0AEE8B1E001C01D9209
:1000F000AE33B207E1F710E0C2E6D0E004C02197CA
:10010000FE010E944B05C136D107C9F70E94570373
:100110000C9451050C940000AF92BF92CF92DF92E5
:10012000EF92FF920F931F93CF93DF936C017B01AC
:100130008B01040F151FEB015E01AE18BF08C0173D
:10014000D10759F06991D601ED91FC910190F081B0
:10015000E02DC6010995892B79F7C501DF91CF9173
:100160001F910F91FF90EF90DF90CF90BF90AF90D5
:100170000895FC01538D448D252F30E0842F90E0AD
:10018000821B930B541710F0CF9608950197089592
:10019000FC01918D828D981761F0A28DAE0FBF2F5B
:1001A000B11D5D968C91928D9F5F9F73928F90E0B1
:1001B00008958FEF9FEF0895FC01918D828D981720
:1001C00031F0828DE80FF11D858D90E008958FEF5D
:1001D0009FEF0895FC01918D228D892F90E0805C26
:1001E0009F4F821B91098F739927089581EA91E0AF
:1001F0000E94EA0021E0892B09F420E0822F089573
:1002000080E090E0892B29F00E94F60081110C9487
:1002100000000895FC01A48DA80FB92FB11DA35AA9
:10022000BF4F2C91848D90E001968F739927848F16
:10023000A689B7892C93A089B1898C918370806439
:100240008C93938D848D981306C00288F389E02DDA
:1002500080818F7D80830895EF92FF920F931F938B
:10026000CF93DF93EC0181E0888F9B8D8C8D981369
:100270001AC0E889F989808185FF15C09FB7F89475
:10028000EE89FF896083E889F989808183708064C1
:1002900080839FBF81E090E0DF91CF911F910F910C
:1002A000FF90EF900895F62E0B8D10E00F5F1F4F1B
:1002B0000F731127E02E8C8D8E110CC00FB607FC2A
:1002C000FACFE889F989808185FFF5CFCE010E94B8
:1002D0000A01F1CFEB8DEC0FFD2FF11DE35AFF4F1B
:1002E000F0829FB7F8940B8FEA89FB898081806246
:1002F000CFCFCF93DF93EC01888D8823B9F0AA8903
:10030000BB89E889F9898C9185FD03C0808186FDD0
:100310000DC00FB607FCF7CF8C9185FFF2CF80811F
:1003200085FFEDCFCE010E940A01E9CFDF91CF9189
:100330000895833081F028F4813099F08230A9F05B
:1003400008958730A9F08830C9F08430B1F48091E5
:1003500080008F7D03C0809180008F778093800024
:10036000089584B58F7784BD089584B58F7DFBCFC4
:100370008091B0008F778093B00008958091B00095
:100380008F7DF9CF1F93CF93DF93282F30E0F901B2
:10039000E255FF4F8491F901E656FF4FD491F901E0
:1003A000EA57FF4FC491CC23A9F0162F81110E9468
:1003B0009901EC2FF0E0EE0FFF1FE859FF4FA591D8
:1003C000B4918FB7F894EC91111108C0D095DE2349
:1003D000DC938FBFDF91CF911F910895DE2BF8CF73
:1003E0003FB7F8948091930190919401A091950169
:1003F000B091960126B5A89B05C02F3F19F0019634
:10040000A11DB11D3FBFBA2FA92F982F8827BC016E
:10041000CD01620F711D811D911D42E0660F771F96
:10042000881F991F4A95D1F70895FC01019000207B
:10043000E9F73197AF01481B590BBC0181EA91E004
:100440000C948C00CF93DF930E941502EC018AE29A
:1004500091E00E9415028C0F9D1FDF91CF910895AE
:100460008F929F92AF92BF92CF92DF92EF92FF92C4
:100470000F931F93CF93DF93CDB7DEB7A1970FB63E
:10048000F894DEBF0FBECDBF6C01990FEE08FF08D8
:10049000F7FE47C06DE281EA91E00E942C018C01D9
:1004A00022273327A9012C193D094E095F0919A2FA
:1004B000CE0181967C019AE0892E912CA12CB12C41
:1004C000CA01B901A50194010E942905605DF701E7
:1004D00062937F01211531054105510589F790E0AF
:1004E00080E0309719F0CF010E941502080F191F04
:1004F0008AE291E00E941502800F911FA1960FB62B
:10050000F894DEBF0FBECDBFDF91CF911F910F9149
:10051000FF90EF90DF90CF90BF90AF909F908F9023
:100520000895A701960119A28E010F5D1F4F8AE061
:10053000C82ED12CE12CF12CCA01B901A7019601DA
:100540000E942905605DF80162938F012115310534
:100550004105510589F7309729F0CF010E94150216
:100560008C01C6CF10E000E0C3CF1F920F920FB6F0
:100570000F9211242F933F934F935F936F937F9329
:100580008F939F93AF93BF93EF93FF9381EA91E093
:100590000E940A01FF91EF91BF91AF919F918F91BE
:1005A0007F916F915F914F913F912F910F900FBE6F
:1005B0000F901F9018951F920F920FB60F92112453
:1005C0002F938F939F93EF93FF93E091B101F0915D
:1005D000B2018081E091B701F091B80182FD1BC0AA
:1005E00090818091BA018F5F8F732091BB01821738
:1005F00041F0E091BA01F0E0EF55FE4F958F809306
:10060000BA01FF91EF919F918F912F910F900FBEA3
:100610000F901F9018958081F4CF1F920F920FB604
:100620000F9211242F933F938F939F93AF93BF9378
:1006300080918F0190919001A0919101B0919201D0
:1006400030918E0123E0230F2D3758F50196A11D1F
:10065000B11D20938E0180938F0190939001A09300
:100660009101B09392018091930190919401A09196
:100670009501B09196010196A11DB11D8093930142
:1006800090939401A0939501B0939601BF91AF917F
:100690009F918F913F912F910F900FBE0F901F90C0
:1006A000189526E8230F0296A11DB11DD2CF78948C
:1006B00084B5826084BD84B5816084BD85B5826067
:1006C00085BD85B5816085BD80916E008160809318
:1006D0006E00109281008091810082608093810081
:1006E0008091810081608093810080918000816091
:1006F000809380008091B10084608093B1008091EC
:10070000B00081608093B00080917A008460809313
:100710007A0080917A00826080937A0080917A00DA
:10072000816080937A0080917A00806880937A005B
:100730001092C100E091B101F091B20182E080839A
:10074000E091AD01F091AE011082E091AF01F09126
:10075000B0018FEC80831092B901E091B501F09166
:10076000B60186E08083E091B301F091B40180810D
:1007700080618083E091B301F091B4018081886051
:100780008083E091B301F091B4018081806880831F
:10079000E091B301F091B40180818F7D808310924C
:1007A0009A01109299018091990190919A01833058
:1007B00091054CF58E5F90E0FC01E656FF4F2491C9
:1007C0008A579F4FFC018491882399F090E0880F0D
:1007D000991FFC01EE58FF4FA591B491FC01E85917
:1007E000FF4F859194918FB7F894EC91E22BEC93A5
:1007F0008FBF8091990190919A01019690939A01EF
:1008000080939901D0CF1092980110929701809116
:100810009701909198018430910574F58B5F90E079
:10082000FC01E656FF4F24918A579F4FFC018491AB
:100830008823C1F090E0880F991FFC01EE58FF4F0C
:10084000C591D491FC01E859FF4FA591B4919FB790
:10085000F8948881E22FE0958E2388838C91E82399
:10086000EC939FBF8091970190919801019690938E
:10087000980180939701CBCF8DE291E00E942202F4
:1008800040E0C42E40E0D42E22E1E22E21E0F22E00
:1008900032E0332E61E0832D0E94C2018701D0E057
:1008A000C0E0FE01ED54FF4F8491FE01E156FF4F81
:1008B000E491FE01E557FF4FB490BB2061F0811138
:1008C0000E949901EB2DF0E0EE0FFF1FE458FF4F5F
:1008D000A591B4918C9180919F019091A001019676
:1008E0009093A00180939F018130910509F054C03D
:1008F000F8018081918190939E0180939D018FE307
:1009000091E00E94150280919D0190919E010E94AC
:1009100030020E94F0012B013C018CE2882E9924C8
:100920009394A12CB12C0E94F001641975098609D9
:100930009709683E734081059105A8F3F1E08F1A8D
:100940009108A108B10828EE420E23E0521E611C56
:10095000711C81149104A104B10429F721960A5F46
:100960001F4FC530D10509F09CCF60E0832D0E9458
:10097000C2013394F2E0EF0EF11C25E032128ACF6F
:10098000C114D10409F480CF0E94F600882309F431
:100990007BCF0E94000078CF8230910589F489E4F2
:1009A00091E00E94150290E080E00E9430028CE20B
:1009B00091E00E9415028DE291E00E942202A9CFEF
:1009C0000397B9F4F8018081918190939C01809301
:1009D0009B0104974CF483E591E00E9415028091FD
:1009E0009B0190919C0193CF8CE591E00E941502B0
:1009F00090CF8BE691E0E1CFE1EAF1E01382128241
:100A000088EE93E0A0E0B0E084839583A683B7836B
:100A100084E091E09183808385EC90E095878487E2
:100A200084EC90E09787868780EC90E0918B808BB8
:100A300081EC90E0938B828B82EC90E0958B848BA1
:100A400086EC90E0978B868B118E128E138E148E0F
:100A50000895A1E21A2EAA1BBB1BFD010DC0AA1FFF
:100A6000BB1FEE1FFF1FA217B307E407F50720F017
:100A7000A21BB30BE40BF50B661F771F881F991F92
:100A80001A9469F760957095809590959B01AC01DB
:100A9000BD01CF010895EE0FFF1F0590F491E02DE9
:060AA0000994F894FFCF59
:100AA600000000002C018C00B9007901EA00C800A2
:100AB600DC00010002000300040005000600070038
:100AC600080009001400000015000D0A00696E6791
:100AD60072657365206C6120636F6E747261006E5F
:100AE60075656D726F313A20006E756D65726F3186
:100AF6003A20006F7063696F6E3A20006F70636909
:100B06006F6E206572726F6E6561004E6F20736541
:100B16002070756564656E20696E677265736172B3
:0E0B2600206D6173206E756D65726F73000037
:107E0000112484B714BE81FFF0D085E080938100F7
:107E100082E08093C00088E18093C10086E0809377
:107E2000C20080E18093C4008EE0C9D0259A86E02C
:107E300020E33CEF91E0309385002093840096BBD3
:107E4000B09BFECF1D9AA8958150A9F7CC24DD24C4
:107E500088248394B5E0AB2EA1E19A2EF3E0BF2EE7
:107E6000A2D0813461F49FD0082FAFD0023811F036
:107E7000013811F484E001C083E08DD089C08234E0
:107E800011F484E103C0853419F485E0A6D080C0E4
:107E9000853579F488D0E82EFF2485D0082F10E0AE
:107EA000102F00270E291F29000F111F8ED06801E7
:107EB0006FC0863521F484E090D080E0DECF843638
:107EC00009F040C070D06FD0082F6DD080E0C81688
:107ED00080E7D80618F4F601B7BEE895C0E0D1E017
:107EE00062D089930C17E1F7F0E0CF16F0E7DF06D8
:107EF00018F0F601B7BEE89568D007B600FCFDCFD4
:107F0000A601A0E0B1E02C9130E011968C91119780
:107F100090E0982F8827822B932B1296FA010C0160
:107F200087BEE89511244E5F5F4FF1E0A038BF0790
:107F300051F7F601A7BEE89507B600FCFDCF97BE46
:107F4000E89526C08437B1F42ED02DD0F82E2BD052
:107F50003CD0F601EF2C8F010F5F1F4F84911BD097
:107F6000EA94F801C1F70894C11CD11CFA94CF0C13
:107F7000D11C0EC0853739F428D08EE10CD085E9AC
:107F80000AD08FE07ACF813511F488E018D01DD067
:107F900080E101D065CF982F8091C00085FFFCCF94
:107FA0009093C60008958091C00087FFFCCF809118
:107FB000C00084FD01C0A8958091C6000895E0E648
:107FC000F0E098E1908380830895EDDF803219F02E
:107FD00088E0F5DFFFCF84E1DECF1F93182FE3DFCA
:107FE0001150E9F7F2DF1F91089580E0E8DFEE27F6
:047FF000FF270994CA
:027FFE00040479
:0400000300007E007B
:00000001FF
