:100000000C9462000C948A000C948A000C948A0070
:100010000C948A000C948A000C948A000C948A0038
:100020000C948A000C948A000C948A000C948A0028
:100030000C948A000C948A000C948A000C948A0018
:100040000C94E6020C948A000C94B4020C948E0278
:100050000C948A000C948A000C948A000C948A00F8
:100060000C948A000C948A000000000023002600F3
:10007000290000000008000201000003040700003E
:1000800000000000000000000000250028002B00F8
:1000900000000000240027002A00040404040404D3
:1000A0000404020202020202030303030303010227
:1000B00004081020408001020408102001020408F6
:1000C0001020C40511241FBECFEFD8E0DEBFCDBF86
:1000D00012E0A0E0B1E0E2EFFBE002C005900D927B
:1000E000A838B107D9F723E0A8E8B2E001C01D9213
:1000F000A033B207E1F710E0C2E6D0E004C02197D8
:10010000FE010E94F105C136D107C9F70E943003F4
:100110000C94F7050C940000AF92BF92CF92DF923F
:10012000EF92FF920F931F93CF93DF936C017B01AC
:100130008B01040F151FEB015E01AE18BF08C0173D
:10014000D10759F06991D601ED91FC910190F081B0
:10015000E02DC6010995892B79F7C501DF91CF9173
:100160001F910F91FF90EF90DF90CF90BF90AF90D5
:100170000895FC01538D448D252F30E0842F90E0AD
:10018000821B930B541710F0CF9608950197089592
:10019000FC01918D828D981761F0A28DAE0FBF2F5B
:1001A000B11D5D968C91928D9F5F9F73928F90E0B1
:1001B00008958FEF9FEF0895FC01918D828D981720
:1001C00031F0828DE80FF11D858D90E008958FEF5D
:1001D0009FEF0895FC01918D228D892F90E0805C26
:1001E0009F4F821B91098F739927089583E992E0AD
:1001F0000E94EA0021E0892B09F420E0822F089573
:1002000080E090E0892B29F00E94F60081110C9487
:1002100000000895FC01A48DA80FB92FB11DA35AA9
:10022000BF4F2C91848D90E001968F739927848F16
:10023000A689B7892C93A089B1898C918370806439
:100240008C93938D848D981306C00288F389E02DDA
:1002500080818F7D80830895EF92FF920F931F938B
:10026000CF93DF93EC0181E0888F9B8D8C8D981369
:100270001AC0E889F989808185FF15C09FB7F89475
:10028000EE89FF896083E889F989808183708064C1
:1002900080839FBF81E090E0DF91CF911F910F910C
:1002A000FF90EF900895F62E0B8D10E00F5F1F4F1B
:1002B0000F731127E02E8C8D8E110CC00FB607FC2A
:1002C000FACFE889F989808185FFF5CFCE010E94B8
:1002D0000A01F1CFEB8DEC0FFD2FF11DE35AFF4F1B
:1002E000F0829FB7F8940B8FEA89FB898081806246
:1002F000CFCFCF93DF93EC01888D8823B9F0AA8903
:10030000BB89E889F9898C9185FD03C0808186FDD0
:100310000DC00FB607FCF7CF8C9185FFF2CF80811F
:1003200085FFEDCFCE010E940A01E9CFDF91CF9189
:100330000895833081F028F4813099F08230A9F05B
:1003400008958730A9F08830C9F08430B1F48091E5
:1003500080008F7D03C0809180008F778093800024
:10036000089584B58F7784BD089584B58F7DFBCFC4
:100370008091B0008F778093B00008958091B00095
:100380008F7DF9CFCF93DF93282F30E0F901EE581E
:10039000FF4F8491F901E255FF4FD491F901E656E0
:1003A000FF4FC491CC23A1F081110E949901EC2F41
:1003B000F0E0EE0FFF1FE859FF4FA591B491EC91CB
:1003C000ED2381E090E009F480E0DF91CF91089582
:1003D00080E090E0FACF1F93CF93DF93282F30E097
:1003E000F901EE58FF4F8491F901E255FF4FD49186
:1003F000F901E656FF4FC491CC23A9F0162F8111C5
:100400000E949901EC2FF0E0EE0FFF1FEA57FF4F1B
:10041000A591B4918FB7F894EC91111108C0D095C3
:10042000DE23DC938FBFDF91CF911F910895DE2BE8
:10043000F8CF3FB7F89480918D0290918E02A091F1
:100440008F02B091900226B5A89B05C02F3F19F0EE
:100450000196A11DB11D3FBFBA2FA92F982F882744
:10046000BC01CD01620F711D811D911D42E0660F1F
:10047000771F881F991F4A95D1F708958F929F92F1
:10048000AF92BF92CF92DF92EF92FF926B017C010D
:100490000E9419024B015C01C114D104E104F10472
:1004A000B9F00E941902681979098A099B09683E06
:1004B00073408105910580F321E0C21AD108E1085B
:1004C000F10888EE880E83E0981EA11CB11CE4CFD1
:1004D000FF90EF90DF90CF90BF90AF909F908F9064
:1004E0000895CF93DF93FC0101900020E9F7319745
:1004F000AF01481B590BBC0183E992E00E948C00BC
:10050000EC0142E050E062E171E083E992E00E9498
:100510008C008C0F9D1FDF91CF9108951F920F9239
:100520000FB60F9211242F933F934F935F936F93C6
:100530007F938F939F93AF93BF93EF93FF9383E941
:1005400092E00E940A01FF91EF91BF91AF919F91BC
:100550008F917F916F915F914F913F912F910F906C
:100560000FBE0F901F9018951F920F920FB60F920B
:1005700011242F938F939F93EF93FF93E091A30206
:10058000F091A4028081E091A902F091AA0282FD7B
:100590001BC090818091AC028F5F8F732091AD0260
:1005A000821741F0E091AC02F0E0ED56FD4F958FDF
:1005B0008093AC02FF91EF919F918F912F910F90BB
:1005C0000FBE0F901F9018958081F4CF1F920F924D
:1005D0000FB60F9211242F933F938F939F93AF9356
:1005E000BF938091890290918A02A0918B02B09171
:1005F0008C023091880223E0230F2D3758F50196A5
:10060000A11DB11D209388028093890290938A02D4
:10061000A0938B02B0938C0280918D0290918E02F8
:10062000A0918F02B09190020196A11DB11D8093FF
:100630008D0290938E02A0938F02B0939002BF918F
:10064000AF919F918F913F912F910F900FBE0F907F
:100650001F90189526E8230F0296A11DB11DD2CF39
:10066000789484B5826084BD84B5816084BD85B58D
:10067000826085BD85B5816085BD80916E00816099
:1006800080936E001092810080918100826080933F
:100690008100809181008160809381008091800041
:1006A0008160809380008091B10084608093B1006C
:1006B0008091B00081608093B00080917A00846066
:1006C00080937A0080917A00826080937A00809192
:1006D0007A00816080937A0080917A0080688093AC
:1006E0007A001092C100E091A302F091A40282E08E
:1006F0008083E0919F02F091A0021082E091A1021C
:10070000F091A2028FEC80831092AB02E091A702DD
:10071000F091A80286E08083E091A502F091A60204
:10072000808180618083E091A502F091A6028081A2
:1007300088608083E091A502F091A60280818068A4
:100740008083E091A502F091A60280818F7D808355
:1007500022E030E0F901E255FF4F4491F901E656FD
:10076000FF4F8491882399F090E0880F991FFC0136
:10077000E057FF4FA591B491FC01EA57FF4F8591D7
:1007800094918FB7F894EC91E42BEC938FBF2F5F8B
:100790003F4F25303105F1F6F901E255FF4F449105
:1007A000F901E656FF4F84918823C1F090E0880F4D
:1007B000991FFC01E057FF4FC591D491FC01EA5706
:1007C000FF4FA591B4919FB7F8948881E42FE095ED
:1007D0008E2388838C91E823EC939FBF2F5F3F4F3C
:1007E00029303105C9F685E191E00E94710285E268
:1007F00091E00E947102C0E0D0E061E082E00E94DE
:10080000EB0160E083E00E94EB0160E084E00E9485
:10081000EB0185E00E94C2010197B9F48091910239
:10082000909192020196909392028093910281306E
:10083000910509F061C188E391E00E94710260E9CD
:1008400071E080E090E00E943E0286E00E94C201DA
:100850000197B9F480919102909192020196909340
:100860009202809391028130910509F04BC184E599
:1008700091E00E94710260E971E080E090E00E94E6
:100880003E0287E00E94C2010197B9F48091910273
:1008900090919202019690939202809391028130FE
:1008A000910509F035C180E791E00E94710260E98D
:1008B00071E080E090E00E943E0288E00E94C20168
:1008C0000197B9F4809191029091920201969093D0
:1008D0009202809391028130910509F01FC18CE84A
:1008E00091E00E94710260E971E080E090E00E9476
:1008F0003E0260E082E00E94EB0161E083E00E9442
:10090000EB0160E084E00E94EB0185E00E94C201FF
:100910000197B9F48091910290919202019690937F
:100920009202809391028130910509F0FDC088EA1E
:1009300091E00E94710260E971E080E090E00E9425
:100940003E0286E00E94C2010197B9F480919102B3
:10095000909192020196909392028093910281303D
:10096000910509F0E7C084EC91E00E94710260E912
:1009700071E080E090E00E943E0287E00E94C201A8
:100980000197B9F48091910290919202019690930F
:100990009202809391028130910509F0D1C080EEDE
:1009A00091E00E94710260E971E080E090E00E94B5
:1009B0003E0288E00E94C2010197B9F48091910241
:1009C00090919202019690939202809391028130CD
:1009D000910509F0BBC08CEF91E00E94710260E9C3
:1009E00071E080E090E00E943E0260E082E00E94C0
:1009F000EB0160E083E00E94EB0161E084E00E9493
:100A0000EB0185E00E94C2010197B9F48091910247
:100A1000909192020196909392028093910281307C
:100A2000910509F099C088E192E00E94710260E9A5
:100A300071E080E090E00E943E0286E00E94C201E8
:100A40000197B9F48091910290919202019690934E
:100A50009202809391028130910509F083C084E372
:100A600092E00E94710260E971E080E090E00E94F3
:100A70003E0287E00E94C2010197B9F48091910281
:100A8000909192020196909392028093910281300C
:100A9000910509F06DC080E592E00E94710260E965
:100AA00071E080E090E00E943E0288E00E94C20176
:100AB0000197B9F4809191029091920201969093DE
:100AC0009202809391028130910509F057C08CE623
:100AD00092E00E94710260E971E080E090E00E9483
:100AE0003E02209709F489CE0E94F600882309F47B
:100AF00084CE0E94000081CE029709F0A6CE86E443
:100B000091E09BCE029709F0BCCE82E691E0B1CE97
:100B1000029709F0D2CE8EE791E0C7CE029709F096
:100B2000E8CE8AE991E0DDCE029709F00ACF86EBA4
:100B300091E0FFCE029709F020CF82ED91E015CF32
:100B4000029709F036CF8EEE91E02BCF029709F095
:100B50004CCF8AE092E041CF029709F06ECF86E257
:100B600092E063CF029709F084CF82E492E079CFDC
:100B7000029709F09ACF8EE592E08FCF029709F0A5
:100B8000B0CF8AE792E0A5CFE3E9F2E013821282C8
:100B900088EE93E0A0E0B0E084839583A683B783DA
:100BA00084E091E09183808385EC90E09587848751
:100BB00084EC90E09787868780EC90E0918B808B27
:100BC00081EC90E0938B828B82EC90E0958B848B10
:100BD00086EC90E0978B868B118E128E138E148E7E
:100BE0000895EE0FFF1F0590F491E02D0994F894FD
:020BF000FFCF35
:100BF200000000002C018C00B9007901EA00C80055
:100C0200DC000D0A00496E67726573617220436FE2
:100C12006E74726100536F6E20736F6C6F2034209C
:100C22006E756D65726F7300314552204E554D459C
:100C3200524F203A310032444F204E554D45524FCB
:100C4200203A3100314552204E554D45524F203AFF
:100C5200340032444F204E554D45524F203A340015
:100C6200314552204E554D45524F203A37003244BD
:100C72004F204E554D45524F203A370031455220B4
:100C82004E554D45524F203A2A0032444F204E5580
:100C92004D45524F203A2A00314552204E554D457E
:100CA200524F203A320032444F204E554D45524F5A
:100CB200203A3200314552204E554D45524F203A8E
:100CC200350032444F204E554D45524F203A3500A3
:100CD200314552204E554D45524F203A380032444C
:100CE2004F204E554D45524F203A38003145522043
:100CF2004E554D45524F203A300032444F204E550A
:100D02004D45524F203A3000314552204E554D4507
:100D1200524F203A330032444F204E554D45524FE8
:100D2200203A3300314552204E554D45524F203A1C
:100D3200360032444F204E554D45524F203A360030
:100D4200314552204E554D45524F203A39003244DA
:100D52004F204E554D45524F203A390031455220D1
:100D62004E554D45524F203A230032444F204E55A6
:080D72004D45524F203A2300C9
:107E0000112484B714BE81FFF0D085E080938100F7
:107E100082E08093C00088E18093C10086E0809377
:107E2000C20080E18093C4008EE0C9D0259A86E02C
:107E300020E33CEF91E0309385002093840096BBD3
:107E4000B09BFECF1D9AA8958150A9F7CC24DD24C4
:107E500088248394B5E0AB2EA1E19A2EF3E0BF2EE7
:107E6000A2D0813461F49FD0082FAFD0023811F036
:107E7000013811F484E001C083E08DD089C08234E0
:107E800011F484E103C0853419F485E0A6D080C0E4
:107E9000853579F488D0E82EFF2485D0082F10E0AE
:107EA000102F00270E291F29000F111F8ED06801E7
:107EB0006FC0863521F484E090D080E0DECF843638
:107EC00009F040C070D06FD0082F6DD080E0C81688
:107ED00080E7D80618F4F601B7BEE895C0E0D1E017
:107EE00062D089930C17E1F7F0E0CF16F0E7DF06D8
:107EF00018F0F601B7BEE89568D007B600FCFDCFD4
:107F0000A601A0E0B1E02C9130E011968C91119780
:107F100090E0982F8827822B932B1296FA010C0160
:107F200087BEE89511244E5F5F4FF1E0A038BF0790
:107F300051F7F601A7BEE89507B600FCFDCF97BE46
:107F4000E89526C08437B1F42ED02DD0F82E2BD052
:107F50003CD0F601EF2C8F010F5F1F4F84911BD097
:107F6000EA94F801C1F70894C11CD11CFA94CF0C13
:107F7000D11C0EC0853739F428D08EE10CD085E9AC
:107F80000AD08FE07ACF813511F488E018D01DD067
:107F900080E101D065CF982F8091C00085FFFCCF94
:107FA0009093C60008958091C00087FFFCCF809118
:107FB000C00084FD01C0A8958091C6000895E0E648
:107FC000F0E098E1908380830895EDDF803219F02E
:107FD00088E0F5DFFFCF84E1DECF1F93182FE3DFCA
:107FE0001150E9F7F2DF1F91089580E0E8DFEE27F6
:047FF000FF270994CA
:027FFE00040479
:0400000300007E007B
:00000001FF
