:100000000C9462000C948A000C948A000C948A0070
:100010000C948A000C948A000C948A000C948A0038
:100020000C948A000C948A000C948A000C948A0028
:100030000C948A000C948A000C948A000C948A0018
:100040000C94E8020C948A000C94B6020C94900272
:100050000C948A000C948A000C948A000C948A00F8
:100060000C948A000C948A000000000023002600F3
:10007000290000000008000201000003040700003E
:1000800000000000000000000000250028002B00F8
:1000900000000000240027002A00040404040404D3
:1000A0000404020202020202030303030303010227
:1000B00004081020408001020408102001020408F6
:1000C0001020AE0411241FBECFEFD8E0DEBFCDBF9D
:1000D00011E0A0E0B1E0E6ECF9E002C005900D927D
:1000E000A639B107D9F722E0A6E9B1E001C01D9217
:1000F000AC33B207E1F710E0C2E6D0E004C02197CC
:10010000FE010E94DB04C136D107C9F70E94320309
:100110000C94E1040C940000AF92BF92CF92DF9256
:10012000EF92FF920F931F93CF93DF936C017B01AC
:100130008B01040F151FEB015E01AE18BF08C0173D
:10014000D10759F06991D601ED91FC910190F081B0
:10015000E02DC6010995892B79F7C501DF91CF9173
:100160001F910F91FF90EF90DF90CF90BF90AF90D5
:100170000895FC01538D448D252F30E0842F90E0AD
:10018000821B930B541710F0CF9608950197089592
:10019000FC01918D828D981761F0A28DAE0FBF2F5B
:1001A000B11D5D968C91928D9F5F9F73928F90E0B1
:1001B00008958FEF9FEF0895FC01918D828D981720
:1001C00031F0828DE80FF11D858D90E008958FEF5D
:1001D0009FEF0895FC01918D228D892F90E0805C26
:1001E0009F4F821B91098F73992708958FE991E0A2
:1001F0000E94EA0021E0892B09F420E0822F089573
:1002000080E090E0892B29F00E94F60081110C9487
:1002100000000895FC01A48DA80FB92FB11DA35AA9
:10022000BF4F2C91848D90E001968F739927848F16
:10023000A689B7892C93A089B1898C918370806439
:100240008C93938D848D981306C00288F389E02DDA
:1002500080818F7D80830895EF92FF920F931F938B
:10026000CF93DF93EC0181E0888F9B8D8C8D981369
:100270001AC0E889F989808185FF15C09FB7F89475
:10028000EE89FF896083E889F989808183708064C1
:1002900080839FBF81E090E0DF91CF911F910F910C
:1002A000FF90EF900895F62E0B8D10E00F5F1F4F1B
:1002B0000F731127E02E8C8D8E110CC00FB607FC2A
:1002C000FACFE889F989808185FFF5CFCE010E94B8
:1002D0000A01F1CFEB8DEC0FFD2FF11DE35AFF4F1B
:1002E000F0829FB7F8940B8FEA89FB898081806246
:1002F000CFCFCF93DF93EC01888D8823B9F0AA8903
:10030000BB89E889F9898C9185FD03C0808186FDD0
:100310000DC00FB607FCF7CF8C9185FFF2CF80811F
:1003200085FFEDCFCE010E940A01E9CFDF91CF9189
:100330000895833081F028F4813099F08230A9F05B
:1003400008958730A9F08830C9F08430B1F48091E5
:1003500080008F7D03C0809180008F778093800024
:10036000089584B58F7784BD089584B58F7DFBCFC4
:100370008091B0008F778093B00008958091B00095
:100380008F7DF9CFCF93DF93282F30E0F901EE581E
:10039000FF4F8491F901E255FF4FD491F901E656E0
:1003A000FF4FC491CC23A1F081110E949901EC2F41
:1003B000F0E0EE0FFF1FE859FF4FA591B491EC91CB
:1003C000ED2381E090E009F480E0DF91CF91089582
:1003D00080E090E0FACF1F93CF93DF93282F30E097
:1003E000F901EE58FF4F8491F901E255FF4FD49186
:1003F000F901E656FF4FC491CC23A9F0162F8111C5
:100400000E949901EC2FF0E0EE0FFF1FEA57FF4F1B
:10041000A591B4918FB7F894EC91111108C0D095C3
:10042000DE23DC938FBFDF91CF911F910895DE2BE8
:10043000F8CF3FB7F89480919B0190919C01A091D7
:100440009D01B0919E0126B5A89B05C02F3F19F0D4
:100450000196A11DB11D3FBFBA2FA92F982F882744
:10046000BC01CD01620F711D811D911D42E0660F1F
:10047000771F881F991F4A95D1F708958F929F92F1
:10048000AF92BF92CF92DF92EF92FF920E94190239
:100490004B015C018AEFC82ED12CE12CF12C0E947B
:1004A0001902681979098A099B09683E7340810518
:1004B0009105A8F321E0C21AD108E108F10888EEFD
:1004C000880E83E0981EA11CB11CC114D104E10464
:1004D000F10429F7FF90EF90DF90CF90BF90AF909D
:1004E0009F908F900895CF93DF93FC01019000209F
:1004F000E9F73197AF01481B590BBC018FE991E037
:100500000E948C00EC0142E050E062E171E08FE972
:1005100091E00E948C008C0F9D1FDF91CF91089578
:100520001F920F920FB60F9211242F933F934F9368
:100530005F936F937F938F939F93AF93BF93EF934B
:10054000FF938FE991E00E940A01FF91EF91BF9123
:10055000AF919F918F917F916F915F914F913F915B
:100560002F910F900FBE0F901F9018951F920F9212
:100570000FB60F9211242F938F939F93EF93FF93B6
:10058000E091AF01F091B0018081E091B501F0916F
:10059000B60182FD1BC090818091B8018F5F8F737F
:1005A0002091B901821741F0E091B801F0E0E156E5
:1005B000FE4F958F8093B801FF91EF919F918F919E
:1005C0002F910F900FBE0F901F9018958081F4CF40
:1005D0001F920F920FB60F9211242F933F938F9378
:1005E0009F93AF93BF938091970190919801A091B1
:1005F0009901B0919A013091960123E0230F2D3794
:1006000058F50196A11DB11D209396018093970185
:1006100090939801A0939901B0939A0180919B01C6
:1006200090919C01A0919D01B0919E010196A11D08
:10063000B11D80939B0190939C01A0939D01B09369
:100640009E01BF91AF919F918F913F912F910F90FC
:100650000FBE0F901F90189526E8230F0296A11D3C
:10066000B11DD2CF789484B5826084BD84B5816099
:1006700084BD85B5826085BD85B5816085BD80916D
:100680006E00816080936E001092810080918100E5
:1006900082608093810080918100816080938100DD
:1006A000809180008160809380008091B10084609F
:1006B0008093B1008091B00081608093B000809100
:1006C0007A00846080937A0080917A0082608093BF
:1006D0007A0080917A00816080937A0080917A001C
:1006E000806880937A001092C100E091AF01F09190
:1006F000B00182E08083E091AB01F091AC01108207
:10070000E091AD01F091AE018FEC80831092B701C2
:10071000E091B301F091B40186E08083E091B101F2
:10072000F091B201808180618083E091B101F0910C
:10073000B201808188608083E091B101F091B201C3
:10074000808180688083E091B101F091B201808165
:100750008F7D808322E030E0F901E255FF4F449124
:10076000F901E656FF4F8491882399F090E0880FB5
:10077000991FFC01E057FF4FA591B491FC01EA5786
:10078000FF4F859194918FB7F894EC91E42BEC9303
:100790008FBF2F5F3F4F25303105F1F6F901E2554C
:1007A000FF4F4491F901E656FF4F84918823C1F031
:1007B00090E0880F991FFC01E057FF4FC591D4913D
:1007C000FC01EA57FF4FA591B4919FB7F894888137
:1007D000E42FE0958E2388838C91E823EC939FBFD0
:1007E0002F5F3F4F29303105C9F685E191E00E9426
:1007F0007302C0E0D0E061E082E00E94EB0160E0C3
:1008000083E00E94EB0160E084E00E94EB0185E060
:100810000E94C201019731F48AE291E00E947302C2
:100820000E943E0286E00E94C201019731F483E3F8
:1008300091E00E9473020E943E0287E00E94C20182
:10084000019731F48CE391E00E9473020E943E0212
:1008500088E00E94C201019731F485E491E00E9492
:1008600073020E943E0260E082E00E94EB0161E0C0
:1008700083E00E94EB0160E084E00E94EB0185E0F0
:100880000E94C201019731F48EE491E00E9473024C
:100890000E943E0286E00E94C201019731F487E582
:1008A00091E00E9473020E943E0287E00E94C20112
:1008B000019731F480E691E00E9473020E943E02AB
:1008C00088E00E94C201019731F489E691E00E941C
:1008D00073020E943E0260E082E00E94EB0160E051
:1008E00083E00E94EB0161E084E00E94EB0185E07F
:1008F0000E94C201019731F482E791E00E947302E5
:100900000E943E0286E00E94C201019731F48BE70B
:1009100091E00E9473020E943E0287E00E94C201A1
:10092000019731F484E891E00E9473020E943E0234
:1009300088E00E94C201019731F48DE891E00E94A5
:1009400073020E943E02209709F455CF0E94F600E0
:10095000882309F450CF0E9400004DCFEFE9F1E069
:100960001382128288EE93E0A0E0B0E08483958346
:10097000A683B78384E091E09183808385EC90E047
:100980009587848784EC90E09787868780EC90E059
:10099000918B808B81EC90E0938B828B82EC90E04A
:1009A000958B848B86EC90E0978B868B118E128EC4
:1009B000138E148E0895EE0FFF1F0590F491E02D15
:0609C0000994F894FFCF3A
:1009C600000000002C018C00B9007901EA00C80083
:1009D600DC000D0A00496E67726573617220436F11
:1009E6006E7472617365C3B161004E756D65726F29
:1009F6003A31006E756D65726F3A34004E756D65ED
:100A0600726F3A37004E756D65726F3A2A006E75D1
:100A16006D65726F3A32006E756D65726F3A3500AC
:100A26006E756D65726F3A38006E756D65726F3AE8
:100A360030006E756D65726F3A33006E756D657256
:100A46006F3A36006E756D65726F3A39006E756D68
:060A560065726F3A2300F7
:00000001FF
