:100000000C9462000C948A000C948A000C948A0070
:100010000C948A000C948A000C948A000C948A0038
:100020000C948A000C948A000C948A000C948A0028
:100030000C948A000C948A000C948A000C948A0018
:100040000C94E6020C948A000C94B4020C948E0278
:100050000C948A000C948A000C948A000C948A00F8
:100060000C948A000C948A000000000023002600F3
:10007000290000000008000201000003040700003E
:1000800000000000000000000000250028002B00F8
:1000900000000000240027002A00040404040404D3
:1000A0000404020202020202030303030303010227
:1000B00004081020408001020408102001020408F6
:1000C00010203C0611241FBECFEFD8E0DEBFCDBF0D
:1000D00013E0A0E0B1E0E2EEFCE002C005900D927A
:1000E000A03AB107D9F724E0A0EAB3E001C01D921D
:1000F000A834B207E1F710E0C2E6D0E004C02197CF
:10010000FE010E946906C136D107C9F70E9430037B
:100110000C946F060C940000AF92BF92CF92DF92C6
:10012000EF92FF920F931F93CF93DF936C017B01AC
:100130008B01040F151FEB015E01AE18BF08C0173D
:10014000D10759F06991D601ED91FC910190F081B0
:10015000E02DC6010995892B79F7C501DF91CF9173
:100160001F910F91FF90EF90DF90CF90BF90AF90D5
:100170000895FC01538D448D252F30E0842F90E0AD
:10018000821B930B541710F0CF9608950197089592
:10019000FC01918D828D981761F0A28DAE0FBF2F5B
:1001A000B11D5D968C91928D9F5F9F73928F90E0B1
:1001B00008958FEF9FEF0895FC01918D828D981720
:1001C00031F0828DE80FF11D858D90E008958FEF5D
:1001D0009FEF0895FC01918D228D892F90E0805C26
:1001E0009F4F821B91098F73992708958BEA93E0A3
:1001F0000E94EA0021E0892B09F420E0822F089573
:1002000080E090E0892B29F00E94F60081110C9487
:1002100000000895FC01A48DA80FB92FB11DA35AA9
:10022000BF4F2C91848D90E001968F739927848F16
:10023000A689B7892C93A089B1898C918370806439
:100240008C93938D848D981306C00288F389E02DDA
:1002500080818F7D80830895EF92FF920F931F938B
:10026000CF93DF93EC0181E0888F9B8D8C8D981369
:100270001AC0E889F989808185FF15C09FB7F89475
:10028000EE89FF896083E889F989808183708064C1
:1002900080839FBF81E090E0DF91CF911F910F910C
:1002A000FF90EF900895F62E0B8D10E00F5F1F4F1B
:1002B0000F731127E02E8C8D8E110CC00FB607FC2A
:1002C000FACFE889F989808185FFF5CFCE010E94B8
:1002D0000A01F1CFEB8DEC0FFD2FF11DE35AFF4F1B
:1002E000F0829FB7F8940B8FEA89FB898081806246
:1002F000CFCFCF93DF93EC01888D8823B9F0AA8903
:10030000BB89E889F9898C9185FD03C0808186FDD0
:100310000DC00FB607FCF7CF8C9185FFF2CF80811F
:1003200085FFEDCFCE010E940A01E9CFDF91CF9189
:100330000895833081F028F4813099F08230A9F05B
:1003400008958730A9F08830C9F08430B1F48091E5
:1003500080008F7D03C0809180008F778093800024
:10036000089584B58F7784BD089584B58F7DFBCFC4
:100370008091B0008F778093B00008958091B00095
:100380008F7DF9CFCF93DF93282F30E0F901EE581E
:10039000FF4F8491F901E255FF4FD491F901E656E0
:1003A000FF4FC491CC23A1F081110E949901EC2F41
:1003B000F0E0EE0FFF1FE859FF4FA591B491EC91CB
:1003C000ED2381E090E009F480E0DF91CF91089582
:1003D00080E090E0FACF1F93CF93DF93282F30E097
:1003E000F901EE58FF4F8491F901E255FF4FD49186
:1003F000F901E656FF4FC491CC23A9F0162F8111C5
:100400000E949901EC2FF0E0EE0FFF1FEA57FF4F1B
:10041000A591B4918FB7F894EC91111108C0D095C3
:10042000DE23DC938FBFDF91CF911F910895DE2BE8
:10043000F8CF3FB7F8948091A5039091A603A091BF
:10044000A703B091A80326B5A89B05C02F3F19F0BC
:100450000196A11DB11D3FBFBA2FA92F982F882744
:10046000BC01CD01620F711D811D911D42E0660F1F
:10047000771F881F991F4A95D1F708958F929F92F1
:10048000AF92BF92CF92DF92EF92FF926B017C010D
:100490000E9419024B015C01C114D104E104F10472
:1004A000B9F00E941902681979098A099B09683E06
:1004B00073408105910580F321E0C21AD108E1085B
:1004C000F10888EE880E83E0981EA11CB11CE4CFD1
:1004D000FF90EF90DF90CF90BF90AF909F908F9064
:1004E0000895CF93DF93FC0101900020E9F7319745
:1004F000AF01481B590BBC018BEA93E00E948C00B2
:10050000EC0142E050E062E171E08BEA93E00E948E
:100510008C008C0F9D1FDF91CF9108951F920F9239
:100520000FB60F9211242F933F934F935F936F93C6
:100530007F938F939F93AF93BF93EF93FF938BEA38
:1005400093E00E940A01FF91EF91BF91AF919F91BB
:100550008F917F916F915F914F913F912F910F906C
:100560000FBE0F901F9018951F920F920FB60F920B
:1005700011242F938F939F93EF93FF93E091BB03ED
:10058000F091BC038081E091C103F091C20382FD30
:100590001BC090818091C4038F5F8F732091C5032E
:1005A000821741F0E091C403F0E0E555FC4F958FD0
:1005B0008093C403FF91EF919F918F912F910F90A2
:1005C0000FBE0F901F9018958081F4CF1F920F924D
:1005D0000FB60F9211242F933F938F939F93AF9356
:1005E000BF938091A1039091A203A091A303B09126
:1005F000A4033091A00323E0230F2D3758F5019673
:10060000A11DB11D2093A0038093A1039093A20389
:10061000A093A303B093A4038091A5039091A60394
:10062000A091A703B091A8030196A11DB11D8093CD
:10063000A5039093A603A093A703B093A803BF912B
:10064000AF919F918F913F912F910F900FBE0F907F
:100650001F90189526E8230F0296A11DB11DD2CF39
:10066000789484B5826084BD84B5816084BD85B58D
:10067000826085BD85B5816085BD80916E00816099
:1006800080936E001092810080918100826080933F
:100690008100809181008160809381008091800041
:1006A0008160809380008091B10084608093B1006C
:1006B0008091B00081608093B00080917A00846066
:1006C00080937A0080917A00826080937A00809192
:1006D0007A00816080937A0080917A0080688093AC
:1006E0007A001092C100E091BB03F091BC0382E05C
:1006F0008083E091B703F091B8031082E091B903D1
:10070000F091BA038FEC80831092C303E091BF0392
:10071000F091C00386E08083E091BD03F091BE03B9
:10072000808180618083E091BD03F091BE03808170
:1007300088608083E091BD03F091BE038081806872
:100740008083E091BD03F091BE0380818F7D808323
:1007500022E030E0F901E255FF4F4491F901E656FD
:10076000FF4F8491882399F090E0880F991FFC0136
:10077000E057FF4FA591B491FC01EA57FF4F8591D7
:1007800094918FB7F894EC91E42BEC938FBF2F5F8B
:100790003F4F25303105F1F6F901E255FF4F449105
:1007A000F901E656FF4F84918823C1F090E0880F4D
:1007B000991FFC01E057FF4FC591D491FC01EA5706
:1007C000FF4FA591B4919FB7F8948881E42FE095ED
:1007D0008E2388838C91E823EC939FBF2F5F3F4F3C
:1007E00029303105C9F685E191E00E94710285E268
:1007F00091E00E947102C0E0D0E061E082E00E94DE
:10080000EB0160E083E00E94EB0160E084E00E9485
:10081000EB0185E00E94C2010197B9F48091A90320
:100820009091AA0301969093AA038093A903813023
:10083000910509F061C188E391E00E94710260E9CD
:1008400071E080E090E00E943E0286E00E94C201DA
:100850000197B9F48091A9039091AA03019690930E
:10086000AA038093A9038130910509F057C180E75D
:1008700091E00E94710260E971E080E090E00E94E6
:100880003E0287E00E94C2010197B9F48091A9035A
:100890009091AA0301969093AA038093A9038130B3
:1008A000910509F04DC188EA91E00E94710260E96A
:1008B00071E080E090E00E943E0288E00E94C20168
:1008C0000197B9F48091A9039091AA03019690939E
:1008D000AA038093A9038130910509F043C180EEFA
:1008E00091E00E94710260E971E080E090E00E9476
:1008F0003E0260E082E00E94EB0161E083E00E9442
:10090000EB0160E084E00E94EB0185E00E94C201FF
:100910000197B9F48091A9039091AA03019690934D
:10092000AA038093A9038130910509F021C18CEFBE
:1009300091E00E94710260E971E080E090E00E9425
:100940003E0286E00E94C2010197B9F48091A9039A
:100950009091AA0301969093AA038093A9038130F2
:10096000910509F017C184E392E00E94710260E9E9
:1009700071E080E090E00E943E0287E00E94C201A8
:100980000197B9F48091A9039091AA0301969093DD
:10099000AA038093A9038130910509F00DC18CE66B
:1009A00092E00E94710260E971E080E090E00E94B4
:1009B0003E0288E00E94C2010197B9F48091A90328
:1009C0009091AA0301969093AA038093A903813082
:1009D000910509F003C184EA92E00E94710260E986
:1009E00071E080E090E00E943E0260E082E00E94C0
:1009F000EB0160E083E00E94EB0161E084E00E9493
:100A0000EB0185E00E94C2010197B9F48091A9032E
:100A10009091AA0301969093AA038093A903813031
:100A2000910509F0EDC08CED92E00E94710260E941
:100A300071E080E090E00E943E0286E00E94C201E8
:100A40000197B9F48091A9039091AA03019690931C
:100A5000AA038093A9038130910509F0E3C084E1E2
:100A600093E00E94710260E971E080E090E00E94F2
:100A70003E0287E00E94C2010197B9F48091A90368
:100A80009091AA0301969093AA038093A9038130C1
:100A9000910509F0D9C08CE493E00E94710260E9ED
:100AA00071E080E090E00E943E0288E00E94C20176
:100AB0000197B9F48091A9039091AA0301969093AC
:100AC000AA038093A9038130910509F0CFC084E87F
:100AD00093E00E94710260E971E080E090E00E9482
:100AE0003E02209709F489CE0E94F600882309F47B
:100AF00084CE0E94000081CE8230910519F486E4F4
:100B000091E09BCE8330910519F484E591E095CE78
:100B1000049709F09ACE82E691E08FCE823091055B
:100B200019F48EE791E0A5CE8330910519F48CE895
:100B300091E09FCE049709F0A4CE8AE991E099CE86
:100B40008230910519F486EB91E0AFCE83309105A8
:100B500019F484EC91E0A9CE049709F0AECE82EDB1
:100B600091E0A3CE029709F0C4CE8EEE91E0B9CE0B
:100B70008230910519F48AE092E0DBCE8330910552
:100B800019F488E192E0D5CE049709F0DACE86E236
:100B900092E0CFCE8230910519F482E492E0E5CE66
:100BA0008330910519F480E592E0DFCE049709F0D7
:100BB000E4CE8EE592E0D9CE8230910519F48AE731
:100BC00092E0EFCE8330910519F488E892E0E9CE07
:100BD000049709F0EECE86E992E0E3CE82309105EB
:100BE00019F482EB92E0F9CE8330910519F480EC90
:100BF00092E0F3CE049709F0F8CE8EEC92E0EDCEC1
:100C00008230910519F48AEE92E00FCF833091057E
:100C100019F488EF92E009CF049709F00ECF86E02F
:100C200093E003CF8230910519F482E293E019CF6B
:100C30008330910519F480E393E013CF049709F012
:100C400018CF8EE393E00DCF8230910519F48AE539
:100C500093E023CF8330910519F488E693E01DCF0C
:100C6000049709F022CF86E793E017CF029709F0A7
:100C700038CF82E993E02DCFEBEAF3E013821282C2
:100C800088EE93E0A0E0B0E084839583A683B783E9
:100C900084E091E09183808385EC90E09587848760
:100CA00084EC90E09787868780EC90E0918B808B36
:100CB00081EC90E0938B828B82EC90E0958B848B1F
:100CC00086EC90E0978B868B118E128E138E148E8D
:100CD0000895EE0FFF1F0590F491E02D0994F8940C
:020CE000FFCF44
:100CE200000000002C018C00B9007901EA00C80064
:100CF200DC000D0A00496E67726573617220436FF2
:100D02006E74726100536F6E20736F6C6F203420AB
:100D12006E756D65726F7300314552204E554D45AB
:100D2200524F203A310032444F204E554D45524FDA
:100D3200203A3100334552204E554D45524F203A0C
:100D4200310034544F204E554D45524F203A310018
:100D5200314552204E554D45524F203A34003244CF
:100D62004F204E554D45524F203A340033455220C4
:100D72004E554D45524F203A340034544F204E5573
:100D82004D45524F203A3400314552204E554D4583
:100D9200524F203A370032444F204E554D45524F64
:100DA200203A3700344552204E554D45524F203A95
:100DB200370034544F204E554D45524F203A37009C
:100DC200314552204E554D45524F203A2A00324469
:100DD2004F204E554D45524F203A2A003145522060
:100DE2004E554D45524F203A320032444F204E5517
:100DF2004D45524F203A3200334552204E554D4513
:100E0200524F203A320034544F204E554D45524FE6
:100E1200203A3200314552204E554D45524F203A2C
:100E2200350032444F204E554D45524F203A350041
:100E3200334552204E554D45524F203A35003454D9
:100E42004F204E554D45524F203A350031455220E4
:100E52004E554D45524F203A380032444F204E55A0
:100E62004D45524F203A3800334552204E554D459C
:100E7200524F203A380034544F204E554D45524F70
:100E8200203A3800314552204E554D45524F203AB6
:100E9200300032444F204E554D45524F203A3000DB
:100EA200334552204E554D45524F203A300034546E
:100EB2004F204E554D45524F203A30003145522079
:100EC2004E554D45524F203A330032444F204E5535
:100ED2004D45524F203A3300334552204E554D4531
:100EE200524F203A330034544F204E554D45524F05
:100EF200203A3300314552204E554D45524F203A4B
:100F0200360032444F204E554D45524F203A36005E
:100F1200334552204E554D45524F203A36003454F7
:100F22004F204E554D45524F203A36003145522002
:100F32004E554D45524F203A390032444F204E55BE
:100F42004D45524F203A3900334552204E554D45BA
:100F5200524F203A390034544F204E554D45524F8E
:100F6200203A3900314552204E554D45524F203AD4
:100F7200230032444F204E554D45524F203A230014
:00000001FF
